{
  "_format": "hh-sol-artifact-1",
  "contractName": "HelloWorld",
  "sourceName": "contracts/HelloWorld.sol",
  "abi": [
    {
      "inputs": [],
      "stateMutability": "nonpayable",
      "type": "constructor"
    },
    {
      "inputs": [],
      "name": "getMessage",
      "outputs": [
        {
          "internalType": "string",
          "name": "",
          "type": "string"
        }
      ],
      "stateMutability": "view",
      "type": "function"
    },
    {
      "inputs": [],
      "name": "message",
      "outputs": [
        {
          "internalType": "string",
          "name": "",
          "type": "string"
        }
      ],
      "stateMutability": "view",
      "type": "function"
    },
    {
      "inputs": [
        {
          "internalType": "string",
          "name": "newMessage",
          "type": "string"
        }
      ],
      "name": "setMessage",
      "outputs": [],
      "stateMutability": "nonpayable",
      "type": "function"
    }
  ],
  "bytecode": "0x608060405234801561001057600080fd5b5060408051808201909152600d81526c48656c6c6f2c20576f726c642160981b602082015260009061004290826100e9565b506101a8565b634e487b7160e01b600052604160045260246000fd5b600181811c9082168061007257607f821691505b60208210810361009257634e487b7160e01b600052602260045260246000fd5b50919050565b601f8211156100e4576000816000526020600020601f850160051c810160208610156100c15750805b601f850160051c820191505b818110156100e0578281556001016100cd565b5050505b505050565b81516001600160401b0381111561010257610102610048565b61011681610110845461005e565b84610098565b602080601f83116001811461014b57600084156101335750858301515b600019600386901b1c1916600185901b1785556100e0565b600085815260208120601f198616915b8281101561017a5788860151825594840194600190910190840161015b565b50858210156101985787850151600019600388901b60f8161c191681555b5050505050600190811b01905550565b610448806101b76000396000f3fe608060405234801561001057600080fd5b50600436106100415760003560e01c8063368b877214610046578063ce6d41de1461005b578063e21f37ce14610079575b600080fd5b6100596100543660046101c7565b610081565b005b610063610091565b6040516100709190610278565b60405180910390f35b610063610123565b600061008d8282610352565b5050565b6060600080546100a0906102c7565b80601f01602080910402602001604051908101604052809291908181526020018280546100cc906102c7565b80156101195780601f106100ee57610100808354040283529160200191610119565b820191906000526020600020905b8154815290600101906020018083116100fc57829003601f168201915b5050505050905090565b60008054610130906102c7565b80601f016020809104026020016040519081016040528092919081815260200182805461015c906102c7565b80156101a95780601f1061017e576101008083540402835291602001916101a9565b820191906000526020600020905b81548152906001019060200180831161018c57829003601f168201915b505050505081565b634e487b7160e01b600052604160045260246000fd5b6000602082840312156101d957600080fd5b813567ffffffffffffffff808211156101f157600080fd5b818401915084601f83011261020557600080fd5b813581811115610217576102176101b1565b604051601f8201601f19908116603f0116810190838211818310171561023f5761023f6101b1565b8160405282815287602084870101111561025857600080fd5b826020860160208301376000928101602001929092525095945050505050565b60006020808352835180602085015260005b818110156102a65785810183015185820160400152820161028a565b506000604082860101526040601f19601f8301168501019250505092915050565b600181811c908216806102db57607f821691505b6020821081036102fb57634e487b7160e01b600052602260045260246000fd5b50919050565b601f82111561034d576000816000526020600020601f850160051c8101602086101561032a5750805b601f850160051c820191505b8181101561034957828155600101610336565b5050505b505050565b815167ffffffffffffffff81111561036c5761036c6101b1565b6103808161037a84546102c7565b84610301565b602080601f8311600181146103b5576000841561039d5750858301515b600019600386901b1c1916600185901b178555610349565b600085815260208120601f198616915b828110156103e4578886015182559484019460019091019084016103c5565b50858210156104025787850151600019600388901b60f8161c191681555b5050505050600190811b0190555056fea26469706673582212203e7e94dc41cc54660b9b7e7f6ac3fe298ff94a1e629d8220345d839a528a6f3a64736f6c63430008180033",
  "linkReferences": {},
  "deployedLinkReferences": {}
}